:020000040800F2
:1000000008040020ED0100084D0900083B0300082A
:100010004909000835030008E10A00080000000053
:10002000000000000000000000000000510900086E
:1000300039030008000000004F09000853090008B8
:10004000070200080702000807020008070200086C
:10005000070200080702000807020008070200085C
:10006000070200080702000807020008070200084C
:10007000070200080702000807020008070200083C
:10008000070200080000000007020008070200083D
:10009000070200080702000807020008070200081C
:1000A000070200080702000807020008070200080C
:1000B00007020008070200080702000807020008FC
:1000C00007020008070200080702000807020008EC
:1000D00007020008070200080702000807020008DC
:1000E00007020008070200080702000807020008CC
:1000F00007020008070200080702000800000000CD
:1001000000000000070200080000000007020008CD
:1001100007020008000000000702000807020008AC
:10012000070200080702000807020008070200088B
:10013000070200080000000000000000070200089D
:10014000070200080702000800000000000000008D
:10015000000000000000000000000000000000009F
:10016000000000000000000000000000070200087E
:10017000070200080000000000000000000000006E
:10018000000000000702000800000000000000005E
:10019000000000000000000000000000000000005F
:1001A000000000000000000007020008070200082D
:1001B000070200080702000807020008000000000C
:1001C000000000000702000800000000000000001E
:1001D0000702000807020008DFF80CD000F02AF838
:1001E00000480047050B0008080400200648804727
:1001F00006480047FEE7FEE7FEE7FEE7FEE7FEE70C
:10020000FEE7FEE7FEE7FEE7C50A0008D9010008A1
:10021000D2B201E000F8012B491EFBD27047002248
:10022000F6E710B513460A4604461946FFF7F0FFF5
:10023000204610BD064C074D06E0E06840F0010383
:1002400094E8070098471034AC42F6D3FFF7C8FF94
:10025000500C0008700C000808B5002000904FF00A
:10026000A04000F0F6F8002858D100BF4FF0A040A1
:1002700080682B4908404FF0A041886000BF00BF54
:10028000084680682749084040F080504FF0A04160
:10029000886000BF244800682449B0FBF1F000EBFF
:1002A000800040000A21B0FBF1F0009002E00098CD
:1002B000401E009000980028F9D17F204FF0A04107
:1002C00089681B4A1140C20711434FF0A042916058
:1002D00000BF00BF00BF4FF0A0408068C00F0028E3
:1002E000F8D14020009002E00098401E0090009855
:1002F0000028F9D100BF4FF0A040806809490840AC
:10030000401C4FF0A041886000BF00BF00BF4FF00D
:10031000A040006800F001000028F7D008BD0000F0
:10032000C0FFFF5FC0FFFF7F04000020400D0300FF
:10033000C0FFFF3F00BFFEE7704700BFFEE70000C1
:100340002DE9F04105460C460026606800B100BF6B
:100350004FF0A04000F082F807460F4800F07EF80A
:100360000743AFB9606860B1D4E900010843A168F0
:100370000843E1680843A968084A11400843A86097
:1003800007E0A8680549084021680843A86000E024
:1003900001263046BDE8F08100010050E030C0FF8A
:1003A00070B505460C460026606800B100BF2846BF
:1003B00000F054F8C8B9606840B1D4E902010843BC
:1003C000E96821F004710843E86005E0E86820F07E
:1003D0000470E1680843E860D4E900010843E96C6F
:1003E0006FF308010843E86400E00126304670BD61
:1003F00010B5024602F18000C1F3012400EB840332
:10040000186880B210BD30B5C36C01F01F051F2401
:10041000AC40A34301F01F05C2F38464AC40234306
:10042000C36430BD70B505460C460026284600F072
:1004300015F858B9D4E900010843A1680843E968F0
:100440004CF2180291430843E86000E00126304670
:1004500070BD0146886800F0010070470146886859
:1004600000F001007047000070B505460C460026FC
:10047000606800B100BF2846FFF7F0FF20BB60684E
:1004800070B1A16820680843E16808432169084306
:1004900061690843E9680E4A11400843E8600BE0CF
:1004A000E168206808432169084361690843E968F5
:1004B000074A11400843E8606068296B21F00F018A
:1004C0000143296300BF00E00126304670BD0000F3
:1004D0001CC0F0FF70B500F13004C1F3012504EB3E
:1004E00085031C6801F01F061F25B540AC4301F0D1
:1004F0001F06C2F38465B5402C431C6070BD70B507
:1005000000F11404C1F3406504EB85031C68C1F3DA
:1005100004560725B540AC43C1F3045502FA05F56E
:100520002C431C6070BD000030B5D0F8B030C1F372
:100530001204A34302F01805034CEC400C40234383
:10054000C0F8B03030BD0000FFFF0700026940F284
:1005500003439A430A4302617047000008B5054906
:10056000C96C0143034AD1641146C96C0140009132
:1005700000BF08BD0010024008B50549C96C014321
:10058000034AD1641146C96C0140009100BF08BD07
:1005900000100240F0B503460A46106890FAA0F039
:1005A000B0FA80F47BE00125A540106800EA05015F
:1005B000002973D050681D6891FAA1F6B6FA86F644
:1005C00077000326BE40B54391FAA1F6B6FA86F647
:1005D000760000FA06F635431D6000BF506801281A
:1005E00002D05068022814D190689D6891FAA1F653
:1005F000B6FA86F677000326BE40B54391FAA1F617
:10060000B6FA86F6760000FA06F635439D6000BF1E
:1006100000BF1069DD6891FAA1F6B6FA86F6770098
:100620000326BE40B54391FAA1F6B6FA86F67600E7
:1006300000FA06F63543DD6000BF506802282DD170
:10064000FF2914D850691D6A91FAA1F6B6FA86F608
:10065000B7000F26BE40B54391FAA1F6B6FA86F66A
:10066000B60000FA06F635431D6200BF16E0506979
:100670005D6A0E0A96FAA6F6B6FA86F6B7000F2657
:10068000BE40B5430E0A96FAA6F6B6FA86F6B6004E
:1006900000FA06F635435D6200BF00BF641C1068B7
:1006A000E04000287FF47FAF5068012802D05068F6
:1006B000022809D1D56810685E68864300FB05F7FB
:1006C0003E435E6000BF00BF0020F0BD4FF47A7172
:1006D000B0FBF1F2521E4FF0E0235A6100229A6102
:1006E00005221A6100BF70470349896821F0F001B3
:1006F0000143014A916070470010024001490860BF
:10070000704700000400002000B597B0002014904E
:100710001590169018210EA8FFF781FD00200A9071
:100720000B900C900D90069007900890099018215E
:100730006846FFF774FD4FF40050FFF71DFF0120DE
:10074000FFF71AFF01200090032001900020049081
:1007500069464FF09040FFF71DFF022000900320F4
:1007600001900020049069464FF09040FFF712FF7F
:10077000002014901590169014A94FF0A040FFF798
:1007800051FE00200E9001200F900020109011903B
:10079000129013900EA94FF0A040FFF765FE0020C5
:1007A0005E4909686FF30D0101434FF0A042C2F8A2
:1007B000C0101146096921F4803108B1012200E01E
:1007C000002241EA02414FF0A042116100BF002126
:1007D0001046FFF7BBFE00BF4FF0A04080685049B5
:1007E00008404FF0A041886000BF00BF0846806805
:1007F0004C49084040F080504FF0A041886000BF55
:1008000000200A900B900AA94748FFF799FD0020A5
:1008100006900120079000200890099006A94FF04B
:10082000A040FFF7BDFD4FF000404FF0A041C96868
:100830003E4A114001434FF0A042D16000BF002169
:100840001046FFF783FE00BF4FF0A040406840F025
:1008500020004FF0A041486000BF00BF084640683C
:1008600020F04000486000BF00BF0846406840F0EC
:100870000400486000BF00BF0846406820F0080040
:10088000486000BF04222A494FF0A040FFF737FE1E
:100890007F2227494FF0A040FFF746FE244A092156
:1008A0004FF0A040FFF7AFFD042221494FF0A040D8
:1008B000FFF725FE7F221E494FF0A040FFF734FED0
:1008C0001B4A40F20F114FF0A040FFF79CFD184A61
:1008D00006214FF0A040FFF7FDFD042214494FF020
:1008E000A040FFF70CFE7F2211494FF0A040FFF718
:1008F0001BFE104A0C214FF0A040FFF7EBFD042235
:100900000C494FF0A040FFF7FAFD7F2209494FF054
:10091000A040FFF709FE17B000BD0000C000005066
:10092000C0FFFF5FC0FFFF7F00030050FFFFDF7FBE
:10093000020030040400600810B52020FFF70EFE0E
:100940000120FFF70BFE10BD00BFFEE770477047A8
:100950007047704770B508205249096821F00F01AF
:100960000143504A116000BF00BF4F48006820F4A7
:1009700080704D498039C1F8800000BF00BF4B48EE
:10098000006840F480704949086000BF00BF00BFA4
:1009900046480068C0F380200028F8D04020434932
:1009A000496821F0FE4141EA0061404A516000BFC0
:1009B000022030215522002340EA010444EA0224A7
:1009C0001C433A4DED683A4E35402C43374DEC60B0
:1009D00000BF00BF2846C06840F080702946C8604C
:1009E00000BF00BF0846006840F08070086000BF8C
:1009F00000BF00BF2D480068C0F340600028F8D059
:100A000003202A49896821F003010143274A9160A4
:100A100000BF8020FFF768FE00BF00BF234880684A
:100A200000F00C000C28F8D12248006840F08070DB
:100A3000204908602048006840F001001E49086015
:100A40000020486000BF1C4840686428FBD3002099
:100A5000FFF74AFE00201549896821F4E06101434F
:100A6000124A916000BF00BF1146896821F46051AD
:100A70000143916000BF1148FFF728FE0F48FFF7C0
:100A80003DFE0F48094988310968030C03229A404A
:100A90009143C2B2030C9A401143044AC2F8881031
:100AA00000BF70BD00200240807000400010024076
:100AB0000C80FFF9FCED00E0001000E080FE210A50
:100AC00002001C000548006840F4700003490860FB
:100AD0004FF00060014980390860704788ED00E000
:100AE00000BFFEE702E008C8121F08C1002AFAD1C1
:100AF00070477047002001E001C1121F002AFBD19E
:100B00007047000008B501204A49096E0143494A6F
:100B100011661146096E0140009100BF00BF000739
:100B20001146896D014391651146896D014000911F
:100B300000BF00BF032002463F4B19684FF6FF037A
:100B400019403E4B0B4343EA02213B4B196000BF67
:100B500000BF3B48806840F480403949886000BF4E
:100B6000FFF7F8FEFFF7E8FEFFF7CEFDFFF774FB97
:100B700000BF4FF0A040406820F020004FF0A0419F
:100B8000486000BF00BF0846406820F04000486051
:100B900000BF00BF0846406820F00400486000BF66
:100BA00000BF0846406820F00800486000BF40E0F1
:100BB0004FF0A040FFF74DFC01281AD100BF4FF0C5
:100BC000A0408068C0F3400098B900BF4FF0A0403B
:100BD0008068C0F3C00060B900BF4FF0A0408068DB
:100BE0001849084040F008004FF0A041886000BF5D
:100BF00000BF00BF00BF4FF0A0400068C0F38010EE
:100C00000028F7D009214FF0A040FFF7F1FB0E4973
:100C1000088040F20F114FF0A040FFF7E9FB0B49AD
:100C2000088000BF40204FF0A041086000BF074887
:100C30000088BDE7001002400CED00E00000FA055E
:100C400000700040C0FFFF7F000000200200002075
:100C5000700C00080000002008000000E40A0008F2
:100C6000780C00080800002000040000F40A0008C6
:080C7000001000100024F40044
:04000005080001D915
:00000001FF
