:020000040800F2
:1000000020040020ED010008050F0008310500085C
:10001000010F0008350300089510000800000000DB
:10002000000000000000000000000000090F0008B0
:100030007103000800000000070F00080B0F000804
:10004000070200080702000807020008070200086C
:10005000070200080702000807020008070200085C
:100060000702000807020008070200083903000819
:10007000070200080702000807020008070200083C
:10008000070200080000000007020008070200083D
:10009000070200080702000807020008070200081C
:1000A000070200080702000807020008070200080C
:1000B00007020008070200080702000807020008FC
:1000C00007020008070200080702000807020008EC
:1000D00007020008070200080702000807020008DC
:1000E00007020008070200080702000807020008CC
:1000F00007020008070200080702000800000000CD
:1001000000000000070200080000000007020008CD
:1001100007020008000000000702000807020008AC
:10012000070200080702000807020008070200088B
:10013000070200080000000000000000070200089D
:10014000070200080702000800000000000000008D
:10015000000000000000000000000000000000009F
:10016000000000000000000000000000070200087E
:10017000070200080000000000000000000000006E
:10018000000000000702000800000000000000005E
:10019000000000000000000000000000000000005F
:1001A000000000000000000007020008070200082D
:1001B000070200080702000807020008000000000C
:1001C000000000000702000800000000000000001E
:1001D0000702000807020008DFF80CD000F02AF838
:1001E00000480047F110000820040020064880471E
:1001F00006480047FEE7FEE7FEE7FEE7FEE7FEE70C
:10020000FEE7FEE7FEE7FEE779100008D9010008E7
:10021000D2B201E000F8012B491EFBD27047002248
:10022000F6E710B513460A4604461946FFF7F0FFF5
:10023000204610BD064C074D06E0E06840F0010383
:1002400094E8070098471034AC42F6D3FFF7C8FF94
:100250002C1200084C12000808B5002000904FF046
:10026000A04000F069FA002858D100BF4FF0A0402C
:1002700080682B4908404FF0A041886000BF00BF54
:10028000084680682749084040F080504FF0A04160
:10029000886000BF244800682449B0FBF1F000EBFF
:1002A000800040000A21B0FBF1F0009002E00098CD
:1002B000401E009000980028F9D17F204FF0A04107
:1002C00089681B4A1140C20711434FF0A042916058
:1002D00000BF00BF00BF4FF0A0408068C00F0028E3
:1002E000F8D14020009002E00098401E0090009855
:1002F0000028F9D100BF4FF0A040806809490840AC
:10030000401C4FF0A041886000BF00BF00BF4FF00D
:10031000A040006800F001000028F7D008BD0000F0
:10032000C0FFFF5FC0FFFF7F1C000020400D0300E7
:10033000C0FFFF3F00BFFEE700BF0C480068C0F3EE
:10034000400028B100BF02200849486000BF00BF3C
:1003500000BF06480068C0F3C00028B100BF0820F5
:100360000249486000BF00BF704700000000024023
:100370007047704703480068034909680844014909
:1003800008607047100000201800002010B50024FD
:10039000032000F09FF8002000F008F808B10124C5
:1003A00001E000F02FF8204610BD000070B50446B3
:1003B000002511480068D8B10F4800684FF47A71E1
:1003C000B1FBF0F00D490968B1FBF0F6304600F0E2
:1003D00095F858B9102C07D200222146501E00F083
:1003E0003BF80748046004E0012502E0012500E035
:1003F0000125284670BD0000180000201C000020C8
:100400001400002008B500BF1148006E40F0010044
:100410000F4908660846006E00F00100009000BF1A
:1004200000BF00BF0846806D40F0805088650846D8
:10043000806D00F08050009000BF00BF00BF0548F5
:10044000806840F480400349886000BF08BD000018
:1004500000100240007000402DE9F05F80460D461C
:10046000164600F019FE074639462A46334601F083
:100470000700C0F1070ABAF1040F02D94FF0040ACD
:1004800001E0C0F1070AD14600F1040ABAF1070FF2
:1004900002D24FF0000A01E0A0F1030AD4464FF067
:1004A000010A0AFA09FAAAF1010A0AEA020A0AFA90
:1004B0000CFA4FF0010B0BFA0CFBABF1010B0BEA42
:1004C000030B4AEA0B042146404600F0EDFDBDE86F
:1004D000F09F000000BF00F00702064B19684FF6BE
:1004E000FF031940044B0B4343EA0221014B1960FF
:1004F00000BF70470CED00E00000FA0570B504463F
:100500002546681EB0F1807F01D301200FE0681EF0
:100510004FF0E02148610F214FF0FF3000F0C4FDA3
:1005200000204FF0E021886107200861002070BDA5
:1005300000BFFEE7F0B53449002005220C464C40D0
:10054000A40AE300314C04EB800454F8234024F067
:10055000FF0414432D4D05EB800545F8234000BFF3
:100560000C461607074617B906F1400100E0284976
:1005700000BF0A46274B00252146102D08D1264EE4
:10058000365C0E44F260244E365C0E44B36007E0E5
:10059000214E365C0E44B2601F4E365C0E44F36052
:1005A00000BF19480021062203461B4C645C1C4412
:1005B00064686FF30F041443174D6D5C1D446C6049
:1005C00000BF00BF0246144B5B5CD35843F00203EC
:1005D000114C645C135100BF00BF00BF0E4B5B5C4D
:1005E000D35843F008030C4C645C135100BF00BFA8
:1005F00000BF094B5B5CD35843F00103064C645CBD
:10060000135100BFF0BD000000000240000802408E
:100610000C03005000000020201200082DE9F041DA
:1006200005460C460026606800B100BF4FF0A040B0
:1006300000F087F807460F4800F083F80743AFB98A
:10064000606860B1D4E900010843A1680843E1682B
:100650000843A968084A11400843A86007E0A86851
:100660000549084021680843A86000E0012630469B
:10067000BDE8F08100010050E030C0FF70B50546D4
:100680000C460026606800B100BF284600F059F80B
:10069000C8B9606840B1D4E902010843E96821F0B3
:1006A00004710843E86005E0E86820F00470E16840
:1006B0000843E860D4E900010843E96C6FF30801DE
:1006C0000843E86400E00126304670BD10B50246DC
:1006D00002F18000C1F3012400EB8403186880B2AA
:1006E00010BD30B5C36C01F01F051F24AC40A343FF
:1006F00001F01F05C2F38464AC402343C36430BDE2
:1007000070B505460C460026284600F01AF858B980
:10071000D4E900010843A1680843E9684CF21802D3
:1007200091430843E86000E00126304670BD014671
:100730008868C0F3400070470146886800F00100F7
:1007400070470146886800F00100704770B50546A3
:100750000C460026606800B100BF2846FFF7F1FF95
:1007600020BB606870B1A16820680843E168084355
:100770002169084361690843E9680E4A114008434A
:10078000E8600BE0E168206808432169084361697B
:100790000843E968074A11400843E8606068296B2C
:1007A00021F00F010143296300BF00E0012630461C
:1007B00070BD00001CC0F0FF70B500F13004C1F343
:1007C000012504EB85031C6801F01F061F25B540B9
:1007D000AC4301F01F06C2F38465B5402C431C6096
:1007E00070BD70B500F11404C1F3406504EB8503DE
:1007F0001C68C1F304560725B540AC43C1F304554A
:1008000002FA05F52C431C6070BD000030B5D0F82D
:10081000B030C1F31204A34302F01805034CEC40BE
:100820000C402343C0F8B03030BD0000FFFF07008C
:10083000026940F203439A430A4302617047000091
:1008400008B50549C96C0143034AD1641146C96C16
:100850000140009100BF08BD0010024008B50549E5
:10086000C96C0143034AD1641146C96C014000912F
:1008700000BF08BD00100240F0B503460A461068EC
:1008800090FAA0F0B0FA80F47BE00125A540106852
:1008900000EA0501002973D050681D6891FAA1F69D
:1008A000B6FA86F677000326BE40B54391FAA1F664
:1008B000B6FA86F6760000FA06F635431D6000BFEC
:1008C0005068012802D05068022814D190689D68B1
:1008D00091FAA1F6B6FA86F677000326BE40B54334
:1008E00091FAA1F6B6FA86F6760000FA06F63543D6
:1008F0009D6000BF00BF1069DD6891FAA1F6B6FAED
:1009000086F677000326BE40B54391FAA1F6B6FA03
:1009100086F6760000FA06F63543DD6000BF5068C3
:1009200002282DD1FF2914D850691D6A91FAA1F629
:10093000B6FA86F6B7000F26BE40B54391FAA1F687
:10094000B6FA86F6B60000FA06F635431D6200BF19
:1009500016E050695D6A0E0A96FAA6F6B6FA86F6B1
:10096000B7000F26BE40B5430E0A96FAA6F6B6FAB1
:1009700086F6B60000FA06F635435D6200BF00BF9A
:10098000641C1068E04000287FF47FAF50680128A5
:1009900002D05068022809D1D56810685E68864385
:1009A00000FB05F73E435E6000BF00BF0020F0BDC6
:1009B0000349896821F0F0010143014A91607047C1
:1009C0000010024001490860704700001C00002030
:1009D00030B597B0002014901590169018210EA8ED
:1009E000FFF71DFC00200A900B900C900D900690D4
:1009F00007900890099018216846FFF710FC4FF403
:100A00000050FFF72BFF0420FFF728FF0120FFF71E
:100A100025FF0220FFF722FF012000900320019014
:100A2000002004906946E448FFF726FF012000906B
:100A3000032001900020049069464FF09040FFF79A
:100A40001BFF0220009003200190002004906946C3
:100A50004FF09040FFF710FF04200090032001901A
:100A60000020049069464FF09040FFF705FF0820F2
:100A70000090032001900020049069464FF09040C0
:100A8000FFF7FAFE4FF48040009003200190002011
:100A900004906946C948FFF7EFFEC94900200522C6
:100AA0000C464C40A40AE300C64C04EB800454F806
:100AB000234024F0FF041443C24D05EB800545F8A4
:100AC000234000BF084600210A460346BE4C645C32
:100AD0001C5944F21005AC431443BB4D6D5C5C5192
:100AE00000BF00BF00BFB84C645C1C5924F44054E4
:100AF0001443B54D6D5C5C5100BF202200BFB24C69
:100B0000645C1C5924F020041443AF4D6D5C5C51AF
:100B100000BF0A4600BFAC4C645C1C5924F0400482
:100B20001443A94D6D5C5C5100BF802200BFA64CF0
:100B3000645C1C5924F080041443A34D6D5C5C512B
:100B400000BF821500BFA04C645C1C5924F44074A3
:100B500014439D4D6D5C5C5100BF021500BF9A4C63
:100B6000645C1C5924F440641443974D6D5C5C51E3
:100B700000BF002014901590169014A94FF0A040CB
:100B8000FFF7BEFD00200E9005200F900020109072
:100B90004FF40050119003201290002013900EA9E2
:100BA0004FF0A040FFF7D2FD0020884909686FF39D
:100BB0000D0101434FF0A042C2F8C010114609696F
:100BC00021F4803108B1012200E0002241EA024113
:100BD0004FF0A042116100BF00211046FFF728FE30
:100BE00000BF4FF0A0408068794908404FF0A04115
:100BF000886000BF00BF084680687649084040F022
:100C000080504FF0A041886000BF00200A900B90F8
:100C10000AA97148FFF702FD002006900120079005
:100C200000200890099006A94FF0A040FFF726FD8C
:100C30004FF000404FF0A041C968684A114001439D
:100C40004FF0A042D16000BF00211046FFF7F0FD39
:100C500000BF4FF0A040406840F020004FF0A0419E
:100C6000486000BF00BF0846406820F04000486070
:100C700000BF00BF0846406840F00400486000BF65
:100C800000BF0846406820F00800486000BF00220E
:100C900053494FF0A040FFF7A4FD7F2250494FF089
:100CA000A040FFF7B3FD4E4A09214FF0A040FFF7E7
:100CB00018FD04224A494FF0A040FFF792FD7F2221
:100CC00047494FF0A040FFF7A1FD454A40F20F1100
:100CD0004FF0A040FFF705FD414A06214FF0A0402C
:100CE000FFF76AFD04223E494FF0A040FFF779FD6F
:100CF0007F223B494FF0A040FFF788FD394A0C2185
:100D00004FF0A040FFF758FD042236494FF0A040B5
:100D1000FFF767FD7F2233494FF0A040FFF776FDD4
:100D2000314A12214FF0A040FFF746FD04222E4920
:100D30004FF0A040FFF755FD7F222B494FF0A04018
:100D4000FFF764FD294A18214FF0A040FFF734FD5A
:100D5000042226494FF0A040FFF743FD7F2223499C
:100D60004FF0A040FFF752FD214A4FF480714FF041
:100D7000A040FFF721FD04221D494FF0A040FFF7DE
:100D800030FD7F221A494FF0A040FFF73FFD194A7E
:100D90004FF483714FF0A040FFF70EFD0422154978
:100DA0004FF0A040FFF71DFD7F2212494FF0A040F9
:100DB000FFF72CFD17B030BD0008004800040048C4
:100DC000000002400008024026120008C000005047
:100DD000C0FFFF5FC0FFFF7F00030050FFFFDF7F0A
:100DE00002003004040060080800900C1000C010DD
:100DF0002000F014400020192DE9F84100BF3648CA
:100E0000806C40F00400344988640846806C00F02F
:100E10000400009000BF00BF00BF0846806C40F097
:100E2000010088640846806C00F00100009000BF5B
:100E300000BF0B21294B1B68C3F302200024254669
:100E40000346C3F1070CBCF1040F02D94FF0040CA8
:100E500001E0C3F1070C674603F1040CBCF1070F76
:100E600002D24FF0000C01E0A3F1030C66464FF0F4
:100E7000010C0CFA07FCACF1010C0CEA040C0CFAA6
:100E800006FC4FF0010808FA06F8A8F1010808EA84
:100E900005084CEA080200BF002904DB1007030E16
:100EA0000F48435407E01007040E0C480C3001F0C3
:100EB0000F031B1FC45400BF0B20002809DB00F0E8
:100EC0001F02012191404209920002F1E022C2F882
:100ED000001100BFBDE8F881001002400CED00E0F9
:100EE00000E400E010B52020FFF7AAFC0420FFF783
:100EF000A7FC0120FFF7A4FC0220FFF7A1FC10BD16
:100F000000BFFEE770477047704710B5FFF732FA31
:100F100010BD000070B508204F49096821F00F018D
:100F200001434D4A116000BF00BF4C48006820F4E7
:100F300080704A498039C1F8800000BF00BF48482E
:100F4000006840F480304649086000BF00BF00BF21
:100F500043480068C0F340400028F8D003205021E7
:100F60005522002340EA010444EA02241C433C4D7C
:100F7000ED683C4E35402C43394DEC6000BF00BF5E
:100F80002846C06840F080702946C86000BF00BF96
:100F90000846006840F08070086000BF00BF00BFD6
:100FA0002F480068C0F340600028F8D003202C4987
:100FB000896821F003010143294A916000BF802024
:100FC000FFF7F6FC00BF00BF2548806800F00C006A
:100FD0000C28F8D12448006840F08070224908604D
:100FE0002248006840F00100204908600020486065
:100FF00000BF1E4840686428FBD30020FFF7D8FCE0
:1010000000201749896821F4E0610143144A916086
:1010100000BF00BF1146896821F46051014391600F
:1010200000BF1348FFF7CEFC0020FFF7BFF908B15F
:10103000FFF79FF90F480A4988310968030C03221A
:101040009A409143C2B2030C9A401143044AC2F839
:10105000881000BF70BD000000200240807000407A
:10106000001002400C80FFF9FCED00E0001000E0F1
:1010700080FE210A02001C000548006840F4700050
:10108000034908604FF000600149803908607047EB
:1010900088ED00E000BFFEE702480068C0F30220D0
:1010A000704700000CED00E010B5002804DB0A07D3
:1010B000130E054A135406E00A07140E034A00F003
:1010C0000F031B1FD45410BD00E400E018ED00E036
:1010D00002E008C8121F08C1002AFAD17047704701
:1010E000002001E001C1121F002AFBD1704700005F
:1010F000FFF74CF9FFF70EFFFFF7F4FEFFF77CFE5A
:10110000FFF766FCFFF7A8F8FFF714FA00BF4FF0EF
:10111000A040406820F020004FF0A041486000BF90
:1011200000BF0846406820F04000486000BF00BF94
:101130000846406820F00400486000BF00BF084631
:10114000406820F00800486000BF0846FFF7F4FA46
:10115000012817D14FF0A040FFF7E9FA90B900BF7E
:101160004FF0A0408068C0F3800058B900BF4FF036
:10117000A040806827490840001D4FF0A0418860CA
:1011800000BF00BF45E04FF0A040FFF7D5FA0128AF
:1011900018D14FF0A040FFF7CAFA98B900BF4FF03E
:1011A000A0408068C0F3C00060B900BF4FF0A0400D
:1011B00080681849084040F008004FF0A04188605E
:1011C00000BF00BF00BF00BF4FF0A0400068C0F3E9
:1011D00080100028F7D009214FF0A040FFF776FAE1
:1011E0000D49088040F20F114FF0A040FFF76EFA52
:1011F0000A49088000BF40204FF0A041086000BFAE
:101200000548008818B94FF6FF7003490880034865
:101210000088B8E7C0FFFF7F0C0000200E00002010
:10122000081C3044586C081C3044586C4C120008A0
:101230000000002020000000D01000086C12000800
:101240002000002000040000E01000080010001042
:10125000001000100010001000100010000000002E
:0C12600010000000010000000024F40059
:04000005080001D915
:00000001FF
